{
  "contractName": "Voting",
  "abi": [
    {
      "inputs": [],
      "stateMutability": "nonpayable",
      "type": "constructor"
    },
    {
      "inputs": [
        {
          "internalType": "string",
          "name": "",
          "type": "string"
        }
      ],
      "name": "Constituenc",
      "outputs": [
        {
          "internalType": "address",
          "name": "Candidate_for_Constituency",
          "type": "address"
        },
        {
          "internalType": "string",
          "name": "party_symboll",
          "type": "string"
        },
        {
          "internalType": "string",
          "name": "contituency_name",
          "type": "string"
        },
        {
          "internalType": "string",
          "name": "district_name",
          "type": "string"
        },
        {
          "internalType": "string",
          "name": "state",
          "type": "string"
        }
      ],
      "stateMutability": "view",
      "type": "function",
      "constant": true
    },
    {
      "inputs": [
        {
          "internalType": "string",
          "name": "",
          "type": "string"
        }
      ],
      "name": "candy",
      "outputs": [
        {
          "internalType": "address",
          "name": "candidate_name",
          "type": "address"
        },
        {
          "internalType": "string",
          "name": "representative_name",
          "type": "string"
        },
        {
          "internalType": "string",
          "name": "party_Name",
          "type": "string"
        },
        {
          "internalType": "string",
          "name": "party_Symbol",
          "type": "string"
        },
        {
          "internalType": "uint256",
          "name": "candidate_Id",
          "type": "uint256"
        },
        {
          "internalType": "uint256",
          "name": "candidate_age",
          "type": "uint256"
        },
        {
          "internalType": "string",
          "name": "candidate_nationality",
          "type": "string"
        },
        {
          "internalType": "string",
          "name": "current_position_in_party",
          "type": "string"
        },
        {
          "internalType": "string",
          "name": "gender",
          "type": "string"
        },
        {
          "internalType": "uint256",
          "name": "votes_polled",
          "type": "uint256"
        }
      ],
      "stateMutability": "view",
      "type": "function",
      "constant": true
    },
    {
      "inputs": [
        {
          "internalType": "address",
          "name": "",
          "type": "address"
        }
      ],
      "name": "vot",
      "outputs": [
        {
          "internalType": "string",
          "name": "authorise",
          "type": "string"
        },
        {
          "internalType": "uint256",
          "name": "voterId",
          "type": "uint256"
        },
        {
          "internalType": "uint256",
          "name": "voter_age",
          "type": "uint256"
        },
        {
          "internalType": "string",
          "name": "voter_gender",
          "type": "string"
        },
        {
          "internalType": "address",
          "name": "voter_name",
          "type": "address"
        },
        {
          "internalType": "string",
          "name": "voter_nationality",
          "type": "string"
        },
        {
          "internalType": "uint256",
          "name": "max_no_of_votes",
          "type": "uint256"
        },
        {
          "internalType": "uint256",
          "name": "passwo",
          "type": "uint256"
        }
      ],
      "stateMutability": "view",
      "type": "function",
      "constant": true
    },
    {
      "inputs": [
        {
          "internalType": "address",
          "name": "un1",
          "type": "address"
        },
        {
          "internalType": "uint256",
          "name": "pa",
          "type": "uint256"
        },
        {
          "internalType": "uint256",
          "name": "npa",
          "type": "uint256"
        }
      ],
      "name": "editPassword",
      "outputs": [
        {
          "internalType": "uint256",
          "name": "",
          "type": "uint256"
        }
      ],
      "stateMutability": "nonpayable",
      "type": "function"
    },
    {
      "inputs": [
        {
          "internalType": "address",
          "name": "unq",
          "type": "address"
        },
        {
          "internalType": "uint256",
          "name": "password",
          "type": "uint256"
        }
      ],
      "name": "login",
      "outputs": [
        {
          "internalType": "uint256",
          "name": "",
          "type": "uint256"
        }
      ],
      "stateMutability": "view",
      "type": "function",
      "constant": true
    },
    {
      "inputs": [
        {
          "internalType": "address",
          "name": "_name",
          "type": "address"
        },
        {
          "internalType": "string",
          "name": "_cname",
          "type": "string"
        },
        {
          "internalType": "string",
          "name": "_partyName",
          "type": "string"
        },
        {
          "internalType": "string",
          "name": "_partySymbol",
          "type": "string"
        },
        {
          "internalType": "uint256",
          "name": "_Id",
          "type": "uint256"
        },
        {
          "internalType": "uint256",
          "name": "_age",
          "type": "uint256"
        },
        {
          "internalType": "string",
          "name": "_nationality",
          "type": "string"
        },
        {
          "internalType": "string",
          "name": "_partyposition",
          "type": "string"
        },
        {
          "internalType": "string",
          "name": "_gen",
          "type": "string"
        },
        {
          "internalType": "uint256",
          "name": "_votes",
          "type": "uint256"
        }
      ],
      "name": "setCandidate",
      "outputs": [
        {
          "internalType": "string",
          "name": "",
          "type": "string"
        }
      ],
      "stateMutability": "nonpayable",
      "type": "function"
    },
    {
      "inputs": [
        {
          "internalType": "string",
          "name": "_autho",
          "type": "string"
        },
        {
          "internalType": "uint256",
          "name": "_id",
          "type": "uint256"
        },
        {
          "internalType": "uint256",
          "name": "_age",
          "type": "uint256"
        },
        {
          "internalType": "string",
          "name": "_gender",
          "type": "string"
        },
        {
          "internalType": "address",
          "name": "_name",
          "type": "address"
        },
        {
          "internalType": "string",
          "name": "_nationality",
          "type": "string"
        },
        {
          "internalType": "uint256",
          "name": "max_votes",
          "type": "uint256"
        },
        {
          "internalType": "uint256",
          "name": "pa",
          "type": "uint256"
        }
      ],
      "name": "setVoter",
      "outputs": [
        {
          "internalType": "string",
          "name": "",
          "type": "string"
        }
      ],
      "stateMutability": "nonpayable",
      "type": "function"
    },
    {
      "inputs": [],
      "name": "getVoter",
      "outputs": [
        {
          "internalType": "address[]",
          "name": "",
          "type": "address[]"
        },
        {
          "internalType": "uint256[]",
          "name": "",
          "type": "uint256[]"
        }
      ],
      "stateMutability": "view",
      "type": "function",
      "constant": true
    },
    {
      "inputs": [
        {
          "internalType": "address",
          "name": "_Candidate_Consti",
          "type": "address"
        },
        {
          "internalType": "string",
          "name": "p_symbol",
          "type": "string"
        },
        {
          "internalType": "string",
          "name": "c_name",
          "type": "string"
        },
        {
          "internalType": "string",
          "name": "d_name",
          "type": "string"
        },
        {
          "internalType": "string",
          "name": "s_name",
          "type": "string"
        }
      ],
      "name": "setConstituency",
      "outputs": [],
      "stateMutability": "nonpayable",
      "type": "function"
    },
    {
      "inputs": [],
      "name": "CandidateLength",
      "outputs": [
        {
          "internalType": "uint256",
          "name": "",
          "type": "uint256"
        }
      ],
      "stateMutability": "view",
      "type": "function",
      "constant": true
    },
    {
      "inputs": [
        {
          "internalType": "address",
          "name": "voter_address",
          "type": "address"
        },
        {
          "internalType": "string",
          "name": "vote_for",
          "type": "string"
        },
        {
          "internalType": "uint256",
          "name": "passwordd",
          "type": "uint256"
        }
      ],
      "name": "vote",
      "outputs": [
        {
          "internalType": "string",
          "name": "",
          "type": "string"
        }
      ],
      "stateMutability": "nonpayable",
      "type": "function"
    },
    {
      "inputs": [],
      "name": "Result",
      "outputs": [
        {
          "internalType": "string",
          "name": "party_name",
          "type": "string"
        },
        {
          "internalType": "string",
          "name": "party_symbol",
          "type": "string"
        },
        {
          "internalType": "string",
          "name": "represent_name",
          "type": "string"
        },
        {
          "internalType": "string",
          "name": "constituency",
          "type": "string"
        },
        {
          "internalType": "string",
          "name": "district",
          "type": "string"
        },
        {
          "internalType": "string",
          "name": "state",
          "type": "string"
        },
        {
          "internalType": "uint256",
          "name": "_winnervotes",
          "type": "uint256"
        },
        {
          "internalType": "string",
          "name": "",
          "type": "string"
        }
      ],
      "stateMutability": "view",
      "type": "function",
      "constant": true
    },
    {
      "inputs": [],
      "name": "AllCandidates",
      "outputs": [
        {
          "internalType": "string",
          "name": "",
          "type": "string"
        },
        {
          "internalType": "string[]",
          "name": "party_name",
          "type": "string[]"
        },
        {
          "internalType": "string[]",
          "name": "party_symbol",
          "type": "string[]"
        },
        {
          "internalType": "string[]",
          "name": "candidate_name",
          "type": "string[]"
        },
        {
          "internalType": "string[]",
          "name": "_Constituency_Name",
          "type": "string[]"
        },
        {
          "internalType": "uint256[]",
          "name": "",
          "type": "uint256[]"
        }
      ],
      "stateMutability": "view",
      "type": "function",
      "constant": true
    }
  ],
  "bytecode": "0x6080604052608c600155600060085534801561001a57600080fd5b50336000806101000a81548173ffffffffffffffffffffffffffffffffffffffff021916908373ffffffffffffffffffffffffffffffffffffffff1602179055506148db8061006a6000396000f3fe608060405234801561001057600080fd5b50600436106100cf5760003560e01c8063726238191161008c578063d59c3f7e11610066578063d59c3f7e14610264578063f4e5d59914610298578063f828361d146102bd578063fc5e77f1146102d9576100cf565b806372623819146101e657806373f936b51461021657806377ae8a9214610246576100cf565b8063087b8b94146100d45780631231f78e14610104578063127aa230146101275780632b37f53c1461016057806330ca8ef31461017f5780635640a447146101af575b600080fd5b6100ee60048036038101906100e99190613646565b610309565b6040516100fb91906137d8565b60405180910390f35b61010c6106c9565b60405161011e969594939291906139c4565b60405180910390f35b610141600480360381019061013c9190613a4f565b610d01565b6040516101579a99989796959493929190613ab6565b60405180910390f35b6101686110bb565b604051610176929190613c3a565b60405180910390f35b61019960048036038101906101949190613c71565b6112d2565b6040516101a691906137d8565b60405180910390f35b6101c960048036038101906101c49190613df8565b61172b565b6040516101dd989796959493929190613e25565b60405180910390f35b61020060048036038101906101fb9190613eb8565b61192b565b60405161020d9190613ef8565b60405180910390f35b610230600480360381019061022b9190613f13565b611ac2565b60405161023d91906137d8565b60405180910390f35b61024e6120f1565b60405161025b9190613ef8565b60405180910390f35b61027e60048036038101906102799190613a4f565b6120fe565b60405161028f959493929190613f82565b60405180910390f35b6102a061238a565b6040516102b4989796959493929190613ff1565b60405180910390f35b6102d760048036038101906102d291906140a0565b612a5c565b005b6102f360048036038101906102ee919061418b565b612d0c565b6040516103009190613ef8565b60405180910390f35b606060008054906101000a900473ffffffffffffffffffffffffffffffffffffffff1673ffffffffffffffffffffffffffffffffffffffff163373ffffffffffffffffffffffffffffffffffffffff161461036357600080fd5b61036d8886612ecd565b61037657600080fd5b6060601288101561038657600080fd5b6012881061069d576001841461039b57600080fd5b600184141561067c576040518061010001604052808b81526020018a81526020018981526020018881526020018773ffffffffffffffffffffffffffffffffffffffff16815260200186815260200185815260200184815250600760008873ffffffffffffffffffffffffffffffffffffffff1673ffffffffffffffffffffffffffffffffffffffff168152602001908152602001600020600082015181600001908051906020019061044f9291906133b5565b50602082015181600101556040820151816002015560608201518160030190805190602001906104809291906133b5565b5060808201518160040160006101000a81548173ffffffffffffffffffffffffffffffffffffffff021916908373ffffffffffffffffffffffffffffffffffffffff16021790555060a08201518160050190805190602001906104e49291906133b5565b5060c0820151816006015560e0820151816007015590505060046040518061010001604052808c81526020018b81526020018a81526020018981526020018873ffffffffffffffffffffffffffffffffffffffff16815260200187815260200186815260200185815250908060018154018082558091505060019003906000526020600020906008020160009091909190915060008201518160000190805190602001906105939291906133b5565b50602082015181600101556040820151816002015560608201518160030190805190602001906105c49291906133b5565b5060808201518160040160006101000a81548173ffffffffffffffffffffffffffffffffffffffff021916908373ffffffffffffffffffffffffffffffffffffffff16021790555060a08201518160050190805190602001906106289291906133b5565b5060c0820151816006015560e0820151816007015550506040518060400160405280601981526020017f566f746572205375636365737366756c6c792061646465642e000000000000008152509050610698565b6040518060800160405280604381526020016148636043913990505b6106b9565b6040518060800160405280604b81526020016145f4604b913990505b8091505098975050505050505050565b60608060608060608060006040518060a00160405280606d815260200161453b606d91399050600060038054905067ffffffffffffffff8111156107105761070f613487565b5b60405190808252806020026020018201604052801561074357816020015b606081526020019060019003908161072e5790505b509050600060038054905067ffffffffffffffff81111561076757610766613487565b5b60405190808252806020026020018201604052801561079a57816020015b60608152602001906001900390816107855790505b509050600060038054905067ffffffffffffffff8111156107be576107bd613487565b5b6040519080825280602002602001820160405280156107f157816020015b60608152602001906001900390816107dc5790505b509050600060038054905067ffffffffffffffff81111561081557610814613487565b5b60405190808252806020026020018201604052801561084857816020015b60608152602001906001900390816108335790505b509050600060038054905067ffffffffffffffff81111561086c5761086b613487565b5b60405190808252806020026020018201604052801561089a5781602001602082028036833780820191505090505b50905060005b600380549050811015610ce057600381815481106108c1576108c06141de565b5b90600052602060002090600a020160020180546108dd9061423c565b80601f01602080910402602001604051908101604052809291908181526020018280546109099061423c565b80156109565780601f1061092b57610100808354040283529160200191610956565b820191906000526020600020905b81548152906001019060200180831161093957829003601f168201915b505050505086828151811061096e5761096d6141de565b5b60200260200101819052506003818154811061098d5761098c6141de565b5b90600052602060002090600a020160030180546109a99061423c565b80601f01602080910402602001604051908101604052809291908181526020018280546109d59061423c565b8015610a225780601f106109f757610100808354040283529160200191610a22565b820191906000526020600020905b815481529060010190602001808311610a0557829003601f168201915b5050505050858281518110610a3a57610a396141de565b5b602002602001018190525060038181548110610a5957610a586141de565b5b90600052602060002090600a02016001018054610a759061423c565b80601f0160208091040260200160405190810160405280929190818152602001828054610aa19061423c565b8015610aee5780601f10610ac357610100808354040283529160200191610aee565b820191906000526020600020905b815481529060010190602001808311610ad157829003601f168201915b5050505050848281518110610b0657610b056141de565b5b6020026020010181905250600060038281548110610b2757610b266141de565b5b90600052602060002090600a02016003018054610b439061423c565b80601f0160208091040260200160405190810160405280929190818152602001828054610b6f9061423c565b8015610bbc5780601f10610b9157610100808354040283529160200191610bbc565b820191906000526020600020905b815481529060010190602001808311610b9f57829003601f168201915b50505050509050600681604051610bd391906142aa565b90815260200160405180910390206002018054610bef9061423c565b80601f0160208091040260200160405190810160405280929190818152602001828054610c1b9061423c565b8015610c685780601f10610c3d57610100808354040283529160200191610c68565b820191906000526020600020905b815481529060010190602001808311610c4b57829003601f168201915b5050505050848381518110610c8057610c7f6141de565b5b6020026020010181905250600281604051610c9b91906142aa565b908152602001604051809103902060090154838381518110610cc057610cbf6141de565b5b602002602001018181525050508080610cd8906142f0565b9150506108a0565b508585858585859b509b509b509b509b509b50505050505050909192939495565b6002818051602081018201805184825260208301602085012081835280955050505050506000915090508060000160009054906101000a900473ffffffffffffffffffffffffffffffffffffffff1690806001018054610d609061423c565b80601f0160208091040260200160405190810160405280929190818152602001828054610d8c9061423c565b8015610dd95780601f10610dae57610100808354040283529160200191610dd9565b820191906000526020600020905b815481529060010190602001808311610dbc57829003601f168201915b505050505090806002018054610dee9061423c565b80601f0160208091040260200160405190810160405280929190818152602001828054610e1a9061423c565b8015610e675780601f10610e3c57610100808354040283529160200191610e67565b820191906000526020600020905b815481529060010190602001808311610e4a57829003601f168201915b505050505090806003018054610e7c9061423c565b80601f0160208091040260200160405190810160405280929190818152602001828054610ea89061423c565b8015610ef55780601f10610eca57610100808354040283529160200191610ef5565b820191906000526020600020905b815481529060010190602001808311610ed857829003601f168201915b505050505090806004015490806005015490806006018054610f169061423c565b80601f0160208091040260200160405190810160405280929190818152602001828054610f429061423c565b8015610f8f5780601f10610f6457610100808354040283529160200191610f8f565b820191906000526020600020905b815481529060010190602001808311610f7257829003601f168201915b505050505090806007018054610fa49061423c565b80601f0160208091040260200160405190810160405280929190818152602001828054610fd09061423c565b801561101d5780601f10610ff25761010080835404028352916020019161101d565b820191906000526020600020905b81548152906001019060200180831161100057829003601f168201915b5050505050908060080180546110329061423c565b80601f016020809104026020016040519081016040528092919081815260200182805461105e9061423c565b80156110ab5780601f10611080576101008083540402835291602001916110ab565b820191906000526020600020905b81548152906001019060200180831161108e57829003601f168201915b505050505090806009015490508a565b606080600060048054905067ffffffffffffffff8111156110df576110de613487565b5b60405190808252806020026020018201604052801561110d5781602001602082028036833780820191505090505b509050600060048054905067ffffffffffffffff81111561113157611130613487565b5b60405190808252806020026020018201604052801561115f5781602001602082028036833780820191505090505b50905060005b6004805490508110156112c55760048181548110611186576111856141de565b5b906000526020600020906008020160040160009054906101000a900473ffffffffffffffffffffffffffffffffffffffff168382815181106111cb576111ca6141de565b5b602002602001019073ffffffffffffffffffffffffffffffffffffffff16908173ffffffffffffffffffffffffffffffffffffffff168152505060006004828154811061121b5761121a6141de565b5b906000526020600020906008020160040160009054906101000a900473ffffffffffffffffffffffffffffffffffffffff169050600760008273ffffffffffffffffffffffffffffffffffffffff1673ffffffffffffffffffffffffffffffffffffffff168152602001908152602001600020600601548383815181106112a5576112a46141de565b5b6020026020010181815250505080806112bd906142f0565b915050611165565b5081819350935050509091565b606060008054906101000a900473ffffffffffffffffffffffffffffffffffffffff1673ffffffffffffffffffffffffffffffffffffffff163373ffffffffffffffffffffffffffffffffffffffff161461132c57600080fd5b6113388b8a8a8a61301c565b61134157600080fd5b6060601987101561135157600080fd5b601987106116fd576000831461136657600080fd5b60008314156116dc576040518061014001604052808d73ffffffffffffffffffffffffffffffffffffffff1681526020018c81526020018b81526020018a81526020018981526020018881526020018781526020018681526020018581526020018481525060028a6040516113db91906142aa565b908152602001604051809103902060008201518160000160006101000a81548173ffffffffffffffffffffffffffffffffffffffff021916908373ffffffffffffffffffffffffffffffffffffffff160217905550602082015181600101908051906020019061144c9291906133b5565b5060408201518160020190805190602001906114699291906133b5565b5060608201518160030190805190602001906114869291906133b5565b506080820151816004015560a0820151816005015560c08201518160060190805190602001906114b79291906133b5565b5060e08201518160070190805190602001906114d49291906133b5565b506101008201518160080190805190602001906114f29291906133b5565b50610120820151816009015590505060036040518061014001604052808e73ffffffffffffffffffffffffffffffffffffffff1681526020018d81526020018c81526020018b81526020018a81526020018981526020018881526020018781526020018681526020018581525090806001815401808255809150506001900390600052602060002090600a020160009091909190915060008201518160000160006101000a81548173ffffffffffffffffffffffffffffffffffffffff021916908373ffffffffffffffffffffffffffffffffffffffff16021790555060208201518160010190805190602001906115eb9291906133b5565b5060408201518160020190805190602001906116089291906133b5565b5060608201518160030190805190602001906116259291906133b5565b506080820151816004015560a0820151816005015560c08201518160060190805190602001906116569291906133b5565b5060e08201518160070190805190602001906116739291906133b5565b506101008201518160080190805190602001906116919291906133b5565b50610120820151816009015550506040518060400160405280601d81526020017f43616e646964617465205375636365737366756c6c792061646465642e00000081525090506116f8565b6040518060800160405280604981526020016146806049913990505b611719565b6040518060800160405280605581526020016147356055913990505b809150509a9950505050505050505050565b600760205280600052604060002060009150905080600001805461174e9061423c565b80601f016020809104026020016040519081016040528092919081815260200182805461177a9061423c565b80156117c75780601f1061179c576101008083540402835291602001916117c7565b820191906000526020600020905b8154815290600101906020018083116117aa57829003601f168201915b5050505050908060010154908060020154908060030180546117e89061423c565b80601f01602080910402602001604051908101604052809291908181526020018280546118149061423c565b80156118615780601f1061183657610100808354040283529160200191611861565b820191906000526020600020905b81548152906001019060200180831161184457829003601f168201915b5050505050908060040160009054906101000a900473ffffffffffffffffffffffffffffffffffffffff169080600501805461189c9061423c565b80601f01602080910402602001604051908101604052809291908181526020018280546118c89061423c565b80156119155780601f106118ea57610100808354040283529160200191611915565b820191906000526020600020905b8154815290600101906020018083116118f857829003601f168201915b5050505050908060060154908060070154905088565b60008060009054906101000a900473ffffffffffffffffffffffffffffffffffffffff1673ffffffffffffffffffffffffffffffffffffffff168373ffffffffffffffffffffffffffffffffffffffff161415611996578160015414156119955760019050611abc565b5b60005b600480549050811015611ab657600481815481106119ba576119b96141de565b5b906000526020600020906008020160040160009054906101000a900473ffffffffffffffffffffffffffffffffffffffff1673ffffffffffffffffffffffffffffffffffffffff168473ffffffffffffffffffffffffffffffffffffffff161415611aa35782604051602001611a30919061435a565b6040516020818303038152906040528051906020012060048281548110611a5a57611a596141de565b5b906000526020600020906008020160010154604051602001611a7c919061435a565b604051602081830303815290604052805190602001201415611aa2576002915050611abc565b5b8080611aae906142f0565b915050611999565b50600090505b92915050565b606080604051602001611ad4906143c1565b60405160208183030381529060405280519060200120600760008773ffffffffffffffffffffffffffffffffffffffff1673ffffffffffffffffffffffffffffffffffffffff168152602001908152602001600020600001604051602001611b3c919061446a565b6040516020818303038152906040528051906020012014611b5c57600080fd5b604051602001611b6b906143c1565b60405160208183030381529060405280519060200120600760008773ffffffffffffffffffffffffffffffffffffffff1673ffffffffffffffffffffffffffffffffffffffff168152602001908152602001600020600001604051602001611bd3919061446a565b6040516020818303038152906040528051906020012014156120ca576012600760008773ffffffffffffffffffffffffffffffffffffffff1673ffffffffffffffffffffffffffffffffffffffff168152602001908152602001600020600201541015611c3f57600080fd5b6012600760008773ffffffffffffffffffffffffffffffffffffffff1673ffffffffffffffffffffffffffffffffffffffff16815260200190815260200160002060020154106120a9576001600760008773ffffffffffffffffffffffffffffffffffffffff1673ffffffffffffffffffffffffffffffffffffffff1681526020019081526020016000206006015414611cd857600080fd5b6001600760008773ffffffffffffffffffffffffffffffffffffffff1673ffffffffffffffffffffffffffffffffffffffff1681526020019081526020016000206006015414156120885783604051602001611d3491906142aa565b60405160208183030381529060405280519060200120600285604051611d5a91906142aa565b9081526020016040518091039020600301604051602001611d7b919061446a565b6040516020818303038152906040528051906020012014611d9b57600080fd5b600760008673ffffffffffffffffffffffffffffffffffffffff1673ffffffffffffffffffffffffffffffffffffffff16815260200190815260200160002060010154600760008773ffffffffffffffffffffffffffffffffffffffff1673ffffffffffffffffffffffffffffffffffffffff168152602001908152602001600020600701541415611e2c57600080fd5b82604051602001611e3d919061435a565b60405160208183030381529060405280519060200120600760008773ffffffffffffffffffffffffffffffffffffffff1673ffffffffffffffffffffffffffffffffffffffff16815260200190815260200160002060070154604051602001611ea6919061435a565b6040516020818303038152906040528051906020012014611ec657600080fd5b83604051602001611ed791906142aa565b60405160208183030381529060405280519060200120600285604051611efd91906142aa565b9081526020016040518091039020600301604051602001611f1e919061446a565b604051602081830303815290604052805190602001201415612067576001600285604051611f4c91906142aa565b90815260200160405180910390206009016000828254611f6c9190614481565b925050819055506000600760008773ffffffffffffffffffffffffffffffffffffffff1673ffffffffffffffffffffffffffffffffffffffff168152602001908152602001600020600601819055506040518060400160405280600581526020017f66616c7365000000000000000000000000000000000000000000000000000000815250600760008773ffffffffffffffffffffffffffffffffffffffff1673ffffffffffffffffffffffffffffffffffffffff16815260200190815260200160002060000190805190602001906120469291906133b5565b506040518060800160405280604c81526020016145a8604c91399050612083565b6040518060800160405280604281526020016148216042913990505b6120a4565b6040518060c001604052806097815260200161478a6097913990505b6120c5565b60405180608001604052806041815260200161463f6041913990505b6120e6565b6040518060a00160405280606c81526020016146c9606c913990505b809150509392505050565b6000600380549050905090565b6006818051602081018201805184825260208301602085012081835280955050505050506000915090508060000160009054906101000a900473ffffffffffffffffffffffffffffffffffffffff169080600101805461215d9061423c565b80601f01602080910402602001604051908101604052809291908181526020018280546121899061423c565b80156121d65780601f106121ab576101008083540402835291602001916121d6565b820191906000526020600020905b8154815290600101906020018083116121b957829003601f168201915b5050505050908060020180546121eb9061423c565b80601f01602080910402602001604051908101604052809291908181526020018280546122179061423c565b80156122645780601f1061223957610100808354040283529160200191612264565b820191906000526020600020905b81548152906001019060200180831161224757829003601f168201915b5050505050908060030180546122799061423c565b80601f01602080910402602001604051908101604052809291908181526020018280546122a59061423c565b80156122f25780601f106122c7576101008083540402835291602001916122f2565b820191906000526020600020905b8154815290600101906020018083116122d557829003601f168201915b5050505050908060040180546123079061423c565b80601f01602080910402602001604051908101604052809291908181526020018280546123339061423c565b80156123805780601f1061235557610100808354040283529160200191612380565b820191906000526020600020905b81548152906001019060200180831161236357829003601f168201915b5050505050905085565b6060806060806060806000606060006040518060400160405280601f81526020017f436f6e67726174756c6174696f6e73206f6e20796f75722077696e212121210081525090506000606060005b60038054905081101561262d576000600382815481106123fb576123fa6141de565b5b90600052602060002090600a020160030180546124179061423c565b80601f01602080910402602001604051908101604052809291908181526020018280546124439061423c565b80156124905780601f1061246557610100808354040283529160200191612490565b820191906000526020600020905b81548152906001019060200180831161247357829003601f168201915b50505050509050836002826040516124a891906142aa565b90815260200160405180910390206009015411156124ec576002816040516124d091906142aa565b9081526020016040518091039020600901549350809250612619565b836002826040516124fd91906142aa565b908152602001604051809103902060090154141561261857836040518060400160405280600d81526020017f456c656374696f6e205469656400000000000000000000000000000000000000815250906040518060400160405280600381526020017f21212100000000000000000000000000000000000000000000000000000000008152509060405180602001604052806000815250906040518060200160405280600081525090604051806020016040528060008152509060405180602001604052806000815250906040518060400160405280600d81526020017f456c656374696f6e2054696564000000000000000000000000000000000000008152509c509c509c509c509c509c509c509c505050505050612a52565b5b508080612625906142f0565b9150506123d8565b5060028160405161263e91906142aa565b908152602001604051809103902060020160028260405161265f91906142aa565b908152602001604051809103902060030160028360405161268091906142aa565b90815260200160405180910390206001016006846040516126a191906142aa565b90815260200160405180910390206002016006856040516126c291906142aa565b90815260200160405180910390206003016006866040516126e391906142aa565b908152602001604051809103902060040187898780546127029061423c565b80601f016020809104026020016040519081016040528092919081815260200182805461272e9061423c565b801561277b5780601f106127505761010080835404028352916020019161277b565b820191906000526020600020905b81548152906001019060200180831161275e57829003601f168201915b5050505050975086805461278e9061423c565b80601f01602080910402602001604051908101604052809291908181526020018280546127ba9061423c565b80156128075780601f106127dc57610100808354040283529160200191612807565b820191906000526020600020905b8154815290600101906020018083116127ea57829003601f168201915b5050505050965085805461281a9061423c565b80601f01602080910402602001604051908101604052809291908181526020018280546128469061423c565b80156128935780601f1061286857610100808354040283529160200191612893565b820191906000526020600020905b81548152906001019060200180831161287657829003601f168201915b505050505095508480546128a69061423c565b80601f01602080910402602001604051908101604052809291908181526020018280546128d29061423c565b801561291f5780601f106128f45761010080835404028352916020019161291f565b820191906000526020600020905b81548152906001019060200180831161290257829003601f168201915b505050505094508380546129329061423c565b80601f016020809104026020016040519081016040528092919081815260200182805461295e9061423c565b80156129ab5780601f10612980576101008083540402835291602001916129ab565b820191906000526020600020905b81548152906001019060200180831161298e57829003601f168201915b505050505093508280546129be9061423c565b80601f01602080910402602001604051908101604052809291908181526020018280546129ea9061423c565b8015612a375780601f10612a0c57610100808354040283529160200191612a37565b820191906000526020600020905b815481529060010190602001808311612a1a57829003601f168201915b505050505092509a509a509a509a509a509a509a509a505050505b9091929394959697565b60008054906101000a900473ffffffffffffffffffffffffffffffffffffffff1673ffffffffffffffffffffffffffffffffffffffff163373ffffffffffffffffffffffffffffffffffffffff1614612ab457600080fd5b612abe8585613267565b612ac757600080fd5b6040518060a001604052808673ffffffffffffffffffffffffffffffffffffffff16815260200185815260200184815260200183815260200182815250600685604051612b1491906142aa565b908152602001604051809103902060008201518160000160006101000a81548173ffffffffffffffffffffffffffffffffffffffff021916908373ffffffffffffffffffffffffffffffffffffffff1602179055506020820151816001019080519060200190612b859291906133b5565b506040820151816002019080519060200190612ba29291906133b5565b506060820151816003019080519060200190612bbf9291906133b5565b506080820151816004019080519060200190612bdc9291906133b5565b5090505060056040518060a001604052808773ffffffffffffffffffffffffffffffffffffffff16815260200186815260200185815260200184815260200183815250908060018154018082558091505060019003906000526020600020906005020160009091909190915060008201518160000160006101000a81548173ffffffffffffffffffffffffffffffffffffffff021916908373ffffffffffffffffffffffffffffffffffffffff1602179055506020820151816001019080519060200190612cab9291906133b5565b506040820151816002019080519060200190612cc89291906133b5565b506060820151816003019080519060200190612ce59291906133b5565b506080820151816004019080519060200190612d029291906133b5565b5050505050505050565b600080600090505b600480549050811015612ec05760048181548110612d3557612d346141de565b5b906000526020600020906008020160040160009054906101000a900473ffffffffffffffffffffffffffffffffffffffff1673ffffffffffffffffffffffffffffffffffffffff168573ffffffffffffffffffffffffffffffffffffffff161415612ead5783604051602001612dab919061435a565b6040516020818303038152906040528051906020012060048281548110612dd557612dd46141de565b5b906000526020600020906008020160070154604051602001612df7919061435a565b604051602081830303815290604052805190602001201415612eac576000600760008773ffffffffffffffffffffffffffffffffffffffff1673ffffffffffffffffffffffffffffffffffffffff1681526020019081526020016000206007018190555082600760008773ffffffffffffffffffffffffffffffffffffffff1673ffffffffffffffffffffffffffffffffffffffff168152602001908152602001600020600701819055506001915050612ec6565b5b8080612eb8906142f0565b915050612d14565b50600090505b9392505050565b600080600090505b6004805490508110156130115783604051602001612ef3919061435a565b6040516020818303038152906040528051906020012060048281548110612f1d57612f1c6141de565b5b906000526020600020906008020160010154604051602001612f3f919061435a565b604051602081830303815290604052805190602001201415612f6057600080fd5b82604051602001612f71919061451f565b6040516020818303038152906040528051906020012060048281548110612f9b57612f9a6141de565b5b906000526020600020906008020160040160009054906101000a900473ffffffffffffffffffffffffffffffffffffffff16604051602001612fdd919061451f565b604051602081830303815290604052805190602001201415612ffe57600080fd5b8080613009906142f0565b915050612ed5565b506001905092915050565b600080600090505b60038054905081101561325a5785604051602001613042919061451f565b604051602081830303815290604052805190602001206003828154811061306c5761306b6141de565b5b90600052602060002090600a020160000160009054906101000a900473ffffffffffffffffffffffffffffffffffffffff166040516020016130ae919061451f565b6040516020818303038152906040528051906020012014156130cf57600080fd5b836040516020016130e091906142aa565b604051602081830303815290604052805190602001206003828154811061310a576131096141de565b5b90600052602060002090600a020160030160405160200161312b919061446a565b60405160208183030381529060405280519060200120141561314c57600080fd5b8460405160200161315d91906142aa565b6040516020818303038152906040528051906020012060038281548110613187576131866141de565b5b90600052602060002090600a02016002016040516020016131a8919061446a565b6040516020818303038152906040528051906020012014156131c957600080fd5b826040516020016131da919061435a565b6040516020818303038152906040528051906020012060038281548110613204576132036141de565b5b90600052602060002090600a020160040154604051602001613226919061435a565b60405160208183030381529060405280519060200120141561324757600080fd5b8080613252906142f0565b915050613024565b5060019050949350505050565b600080600090505b6005805490508110156133aa578360405160200161328d919061451f565b60405160208183030381529060405280519060200120600582815481106132b7576132b66141de565b5b906000526020600020906005020160000160009054906101000a900473ffffffffffffffffffffffffffffffffffffffff166040516020016132f9919061451f565b60405160208183030381529060405280519060200120141561331a57600080fd5b8260405160200161332b91906142aa565b6040516020818303038152906040528051906020012060058281548110613355576133546141de565b5b9060005260206000209060050201600101604051602001613376919061446a565b60405160208183030381529060405280519060200120141561339757600080fd5b80806133a2906142f0565b91505061326f565b506001905092915050565b8280546133c19061423c565b90600052602060002090601f0160209004810192826133e3576000855561342a565b82601f106133fc57805160ff191683800117855561342a565b8280016001018555821561342a579182015b8281111561342957825182559160200191906001019061340e565b5b509050613437919061343b565b5090565b5b8082111561345457600081600090555060010161343c565b5090565b6000604051905090565b600080fd5b600080fd5b600080fd5b600080fd5b6000601f19601f8301169050919050565b7f4e487b7100000000000000000000000000000000000000000000000000000000600052604160045260246000fd5b6134bf82613476565b810181811067ffffffffffffffff821117156134de576134dd613487565b5b80604052505050565b60006134f1613458565b90506134fd82826134b6565b919050565b600067ffffffffffffffff82111561351d5761351c613487565b5b61352682613476565b9050602081019050919050565b82818337600083830152505050565b600061355561355084613502565b6134e7565b90508281526020810184848401111561357157613570613471565b5b61357c848285613533565b509392505050565b600082601f8301126135995761359861346c565b5b81356135a9848260208601613542565b91505092915050565b6000819050919050565b6135c5816135b2565b81146135d057600080fd5b50565b6000813590506135e2816135bc565b92915050565b600073ffffffffffffffffffffffffffffffffffffffff82169050919050565b6000613613826135e8565b9050919050565b61362381613608565b811461362e57600080fd5b50565b6000813590506136408161361a565b92915050565b600080600080600080600080610100898b03121561366757613666613462565b5b600089013567ffffffffffffffff81111561368557613684613467565b5b6136918b828c01613584565b98505060206136a28b828c016135d3565b97505060406136b38b828c016135d3565b965050606089013567ffffffffffffffff8111156136d4576136d3613467565b5b6136e08b828c01613584565b95505060806136f18b828c01613631565b94505060a089013567ffffffffffffffff81111561371257613711613467565b5b61371e8b828c01613584565b93505060c061372f8b828c016135d3565b92505060e06137408b828c016135d3565b9150509295985092959890939650565b600081519050919050565b600082825260208201905092915050565b60005b8381101561378a57808201518184015260208101905061376f565b83811115613799576000848401525b50505050565b60006137aa82613750565b6137b4818561375b565b93506137c481856020860161376c565b6137cd81613476565b840191505092915050565b600060208201905081810360008301526137f2818461379f565b905092915050565b600081519050919050565b600082825260208201905092915050565b6000819050602082019050919050565b600082825260208201905092915050565b600061384282613750565b61384c8185613826565b935061385c81856020860161376c565b61386581613476565b840191505092915050565b600061387c8383613837565b905092915050565b6000602082019050919050565b600061389c826137fa565b6138a68185613805565b9350836020820285016138b885613816565b8060005b858110156138f457848403895281516138d58582613870565b94506138e083613884565b925060208a019950506001810190506138bc565b50829750879550505050505092915050565b600081519050919050565b600082825260208201905092915050565b6000819050602082019050919050565b61393b816135b2565b82525050565b600061394d8383613932565b60208301905092915050565b6000602082019050919050565b600061397182613906565b61397b8185613911565b935061398683613922565b8060005b838110156139b757815161399e8882613941565b97506139a983613959565b92505060018101905061398a565b5085935050505092915050565b600060c08201905081810360008301526139de818961379f565b905081810360208301526139f28188613891565b90508181036040830152613a068187613891565b90508181036060830152613a1a8186613891565b90508181036080830152613a2e8185613891565b905081810360a0830152613a428184613966565b9050979650505050505050565b600060208284031215613a6557613a64613462565b5b600082013567ffffffffffffffff811115613a8357613a82613467565b5b613a8f84828501613584565b91505092915050565b613aa181613608565b82525050565b613ab0816135b2565b82525050565b600061014082019050613acc600083018d613a98565b8181036020830152613ade818c61379f565b90508181036040830152613af2818b61379f565b90508181036060830152613b06818a61379f565b9050613b156080830189613aa7565b613b2260a0830188613aa7565b81810360c0830152613b34818761379f565b905081810360e0830152613b48818661379f565b9050818103610100830152613b5d818561379f565b9050613b6d610120830184613aa7565b9b9a5050505050505050505050565b600081519050919050565b600082825260208201905092915050565b6000819050602082019050919050565b613bb181613608565b82525050565b6000613bc38383613ba8565b60208301905092915050565b6000602082019050919050565b6000613be782613b7c565b613bf18185613b87565b9350613bfc83613b98565b8060005b83811015613c2d578151613c148882613bb7565b9750613c1f83613bcf565b925050600181019050613c00565b5085935050505092915050565b60006040820190508181036000830152613c548185613bdc565b90508181036020830152613c688184613966565b90509392505050565b6000806000806000806000806000806101408b8d031215613c9557613c94613462565b5b6000613ca38d828e01613631565b9a505060208b013567ffffffffffffffff811115613cc457613cc3613467565b5b613cd08d828e01613584565b99505060408b013567ffffffffffffffff811115613cf157613cf0613467565b5b613cfd8d828e01613584565b98505060608b013567ffffffffffffffff811115613d1e57613d1d613467565b5b613d2a8d828e01613584565b9750506080613d3b8d828e016135d3565b96505060a0613d4c8d828e016135d3565b95505060c08b013567ffffffffffffffff811115613d6d57613d6c613467565b5b613d798d828e01613584565b94505060e08b013567ffffffffffffffff811115613d9a57613d99613467565b5b613da68d828e01613584565b9350506101008b013567ffffffffffffffff811115613dc857613dc7613467565b5b613dd48d828e01613584565b925050610120613de68d828e016135d3565b9150509295989b9194979a5092959850565b600060208284031215613e0e57613e0d613462565b5b6000613e1c84828501613631565b91505092915050565b6000610100820190508181036000830152613e40818b61379f565b9050613e4f602083018a613aa7565b613e5c6040830189613aa7565b8181036060830152613e6e818861379f565b9050613e7d6080830187613a98565b81810360a0830152613e8f818661379f565b9050613e9e60c0830185613aa7565b613eab60e0830184613aa7565b9998505050505050505050565b60008060408385031215613ecf57613ece613462565b5b6000613edd85828601613631565b9250506020613eee858286016135d3565b9150509250929050565b6000602082019050613f0d6000830184613aa7565b92915050565b600080600060608486031215613f2c57613f2b613462565b5b6000613f3a86828701613631565b935050602084013567ffffffffffffffff811115613f5b57613f5a613467565b5b613f6786828701613584565b9250506040613f78868287016135d3565b9150509250925092565b600060a082019050613f976000830188613a98565b8181036020830152613fa9818761379f565b90508181036040830152613fbd818661379f565b90508181036060830152613fd1818561379f565b90508181036080830152613fe5818461379f565b90509695505050505050565b600061010082019050818103600083015261400c818b61379f565b90508181036020830152614020818a61379f565b90508181036040830152614034818961379f565b90508181036060830152614048818861379f565b9050818103608083015261405c818761379f565b905081810360a0830152614070818661379f565b905061407f60c0830185613aa7565b81810360e0830152614091818461379f565b90509998505050505050505050565b600080600080600060a086880312156140bc576140bb613462565b5b60006140ca88828901613631565b955050602086013567ffffffffffffffff8111156140eb576140ea613467565b5b6140f788828901613584565b945050604086013567ffffffffffffffff81111561411857614117613467565b5b61412488828901613584565b935050606086013567ffffffffffffffff81111561414557614144613467565b5b61415188828901613584565b925050608086013567ffffffffffffffff81111561417257614171613467565b5b61417e88828901613584565b9150509295509295909350565b6000806000606084860312156141a4576141a3613462565b5b60006141b286828701613631565b93505060206141c3868287016135d3565b92505060406141d4868287016135d3565b9150509250925092565b7f4e487b7100000000000000000000000000000000000000000000000000000000600052603260045260246000fd5b7f4e487b7100000000000000000000000000000000000000000000000000000000600052602260045260246000fd5b6000600282049050600182168061425457607f821691505b602082108114156142685761426761420d565b5b50919050565b600081905092915050565b600061428482613750565b61428e818561426e565b935061429e81856020860161376c565b80840191505092915050565b60006142b68284614279565b915081905092915050565b7f4e487b7100000000000000000000000000000000000000000000000000000000600052601160045260246000fd5b60006142fb826135b2565b91507fffffffffffffffffffffffffffffffffffffffffffffffffffffffffffffffff82141561432e5761432d6142c1565b5b600182019050919050565b6000819050919050565b61435461434f826135b2565b614339565b82525050565b60006143668284614343565b60208201915081905092915050565b7f7472756500000000000000000000000000000000000000000000000000000000600082015250565b60006143ab60048361426e565b91506143b682614375565b600482019050919050565b60006143cc8261439e565b9150819050919050565b60008190508160005260206000209050919050565b600081546143f88161423c565b614402818661426e565b9450600182166000811461441d576001811461442e57614461565b60ff19831686528186019350614461565b614437856143d6565b60005b838110156144595781548189015260018201915060208101905061443a565b838801955050505b50505092915050565b600061447682846143eb565b915081905092915050565b600061448c826135b2565b9150614497836135b2565b9250827fffffffffffffffffffffffffffffffffffffffffffffffffffffffffffffffff038211156144cc576144cb6142c1565b5b828201905092915050565b60008160601b9050919050565b60006144ef826144d7565b9050919050565b6000614501826144e4565b9050919050565b61451961451482613608565b6144f6565b82525050565b600061452b8284614508565b6014820191508190509291505056fe54686573652061726520616c6c207468652063616e6469646174657320616e642074686569722070617274792073796d626f6c732e4b696e646c79207069636b20796f75722070617274792073796d626f6c20616e6420766f746520666f722069742e5468616e6b20796f752e596f757220566f746520686173206265656e207375636365737366756c6c79206361737465642e5468616e6b20796f7520666f7220766f74696e672e48617665206120676f6f64206461792e566f746572204e6f742041646465642e21212120566f746572277320616765206d7573742062652067726561746572207468616e206f7220657175616c20746f2031382079656172732e20596f7572206167652069732062656c6f772031382079656172732c796f7520617265206e6f7420656c696769626c6520746f20766f74652e5468616e6b20796f75412043616e646964617465277320766f746520706f6c6c20636f756e742073686f756c6420626520696e697469616c697a656420746f207a65726f2e506c6561736520526576696577596f7520617265206e6f7420617574686f72697a656420746f20766f74652e706c65617365207265616368206f757420746f20636f6e6365726e656420617574686f72697469657320666f72207265736f6c7574696f6e206f662070726f626c656d2e5468616e6b20796f7543616e646964617465204e6f7420416464656420212121202e43616e6469646174652773206167652073686f756c642062652067726561746572207468616e206f7220657175616c20746f2032352079656172732e596f752068617665206265656e20616c6c6f74746564206d6f7265207468616e206f6e6520766f74652e48656e63652063616e6e6f74206265207065726d697474656420746f20766f74652e506c65617365207265616368206f757420746f20636f6e6365726e656420617574686f72697469657320666f722070726f626c656d207265736f6c7574696f6e2e5468616e6b20796f752e496e76616c69642070617274792073796d626f6c2e706c656173652072652d636865636b207468652073796d626f6c20616e6420636173742074686520766f74652e4120766f7465722073686f756c6420626520616c6c6f74746564203120766f7465206e6f74206d6f7265207468616e20746861742e506c656173652072657669657720a2646970667358221220e6b08061759c6fe14af39eecf61ad5aa77711c678b36ce55a93b76098a6b2fb464736f6c634300080a0033",
  "immutableReferences": {},
  "source": "//SPDX-License-Identifier: MIT\r\npragma solidity ^0.8.10;\r\n\r\ncontract Voting{\r\n    address electionCommissioner;\r\n    uint pass=140;\r\n    constructor(){\r\n    electionCommissioner=msg.sender;\r\n   \r\n    }\r\n\r\n    struct Candidate{\r\n        address candidate_name;\r\n        string representative_name;\r\n        string party_Name;\r\n        string party_Symbol;\r\n        uint candidate_Id;\r\n        uint candidate_age;\r\n        string candidate_nationality;\r\n        string current_position_in_party;\r\n        string gender;\r\n        uint votes_polled;\r\n    }\r\n      \r\n    struct voter{\r\n        string authorise;\r\n        uint voterId;\r\n        uint voter_age;\r\n        string voter_gender;\r\n        address voter_name;\r\n        string voter_nationality;\r\n        uint max_no_of_votes;\r\n        uint passwo;\r\n    }\r\n    struct Constituency{\r\n        address Candidate_for_Constituency;\r\n        string party_symboll;\r\n        string contituency_name;\r\n        string district_name;\r\n        string state;\r\n    }\r\n    modifier onlyElectionCommissioner(){\r\n        require(msg.sender==electionCommissioner);\r\n        _;\r\n    }\r\n\r\n    mapping(string=>Candidate)public candy;\r\n    Candidate[] no_of_candidates;\r\n    voter[] no_of_voters;\r\n    Constituency[] no_of_Constituency;\r\n    mapping(string=>Constituency)public Constituenc;\r\n    mapping(address=>voter)public vot;\r\n    uint Total_no_of_votes=0;\r\n    function editPassword(address un1,uint pa,uint npa)public  returns(uint){\r\n          for(uint i=0;i<no_of_voters.length;i++){\r\n                  if(un1 == no_of_voters[i].voter_name){\r\n             if(keccak256(abi.encodePacked((no_of_voters[i].passwo))) == keccak256(abi.encodePacked((pa)))){\r\n                       //  no_of_voters[i].passwo=npa;\r\n                       vot[un1].passwo=0;\r\n                         vot[un1].passwo = npa;\r\n                    return 1;\r\n            }\r\n                  }\r\n              }\r\n              return 0;\r\n    }\r\n      function login(address unq,uint password)public view returns(uint) {\r\n        if(unq == electionCommissioner){\r\n            if(pass == password){\r\n                  return 1;\r\n          }\r\n      }\r\n              for(uint i=0;i<no_of_voters.length;i++){\r\n                  if(unq == no_of_voters[i].voter_name){\r\n             if(keccak256(abi.encodePacked((no_of_voters[i].voterId))) == keccak256(abi.encodePacked((password)))){\r\n                    return 2;\r\n            }\r\n                  }\r\n              }\r\n          return 0;\r\n      }\r\n\r\n      function validateCandidate(address _name,string memory _partyName,string memory _partySymbol,\r\n        uint _Id)internal view returns(bool){\r\n            for(uint i=0;i<no_of_candidates.length;i++){\r\n                  require(keccak256(abi.encodePacked((no_of_candidates[i].candidate_name))) != keccak256(abi.encodePacked((_name))));\r\n             require(keccak256(abi.encodePacked((no_of_candidates[i].party_Symbol))) != keccak256(abi.encodePacked((_partySymbol))));\r\n              require(keccak256(abi.encodePacked((no_of_candidates[i].party_Name))) != keccak256(abi.encodePacked((_partyName))));\r\n               require(keccak256(abi.encodePacked((no_of_candidates[i].candidate_Id))) != keccak256(abi.encodePacked((_Id))));\r\n            }\r\n            return true;\r\n        }\r\n      function validateVoter(uint _id,address _name)internal view returns(bool){\r\n              for(uint i=0;i<no_of_voters.length;i++){\r\n                  require(keccak256(abi.encodePacked((no_of_voters[i].voterId))) != keccak256(abi.encodePacked((_id))));\r\n             require(keccak256(abi.encodePacked((no_of_voters[i].voter_name))) != keccak256(abi.encodePacked((_name))));\r\n            }\r\n          return true;\r\n       }\r\n      function validateConstituency(address candi,string memory symbio) internal view returns(bool){\r\n            for(uint i=0;i<no_of_Constituency.length;i++){\r\n                  require(keccak256(abi.encodePacked((no_of_Constituency[i].Candidate_for_Constituency))) != keccak256(abi.encodePacked((candi))));\r\n             require(keccak256(abi.encodePacked((no_of_Constituency[i].party_symboll))) != keccak256(abi.encodePacked((symbio))));\r\n            }\r\n            return true;\r\n      }\r\n    function setCandidate(address _name,string memory _cname,string memory _partyName,string memory _partySymbol,\r\n        uint _Id,uint _age,string memory _nationality,string memory _partyposition,string memory _gen,uint _votes)\r\n        public onlyElectionCommissioner returns(string memory){\r\n        require(validateCandidate(_name,_partyName,_partySymbol,_Id));\r\n            string memory message;\r\n            require(_age>=25);\r\n            if(_age>=25){\r\n                require(_votes==0);\r\n                if(_votes==0){\r\n        candy[_partySymbol]=Candidate(_name,_cname,_partyName,_partySymbol,_Id,_age,_nationality,_partyposition,_gen,_votes);\r\n        no_of_candidates.push(Candidate(_name,_cname,_partyName,_partySymbol,_Id,_age,_nationality,_partyposition,_gen,_votes));\r\n        message=\"Candidate Successfully added.\";\r\n                }\r\n                else{\r\n                    message=\"A Candidate's vote poll count should be initialized to zero.Please Review\";\r\n                }\r\n    }\r\n    else{\r\n        message=\"Candidate Not Added !!! .Candidate's age should be greater than or equal to 25 years.\";\r\n    } \r\n    return (message);\r\n        }\r\n   \r\n    function setVoter(string memory _autho,uint _id,uint _age,string memory _gender,address _name,\r\n       string memory _nationality,uint max_votes,uint pa)public onlyElectionCommissioner returns (string memory){\r\n           require(validateVoter(_id,_name));\r\n           string memory message;\r\n           require(_age>=18);\r\n           if(_age>=18){\r\n               require(max_votes==1);\r\n               if(max_votes==1){\r\n       vot[_name]=voter(_autho,_id,_age,_gender,_name,_nationality,max_votes,pa);\r\n       no_of_voters.push(voter(_autho,_id,_age,_gender,_name,_nationality,max_votes,pa));\r\n       message=\"Voter Successfully added.\";\r\n               }\r\n               else{\r\n                  message=\"A voter should be allotted 1 vote not more than that.Please review \"; \r\n               }\r\n           }\r\n           else{\r\n               message=\"Voter Not Added.!!! Voter's age must be greater than or equal to 18 years. \";\r\n           }\r\nreturn (message);\r\n    }\r\n    function getVoter()public view returns (address[] memory,uint[] memory){\r\n        address[] memory name=new address[](no_of_voters.length);\r\n        uint[] memory votes=new uint[](no_of_voters.length); \r\n        for(uint i=0;i<no_of_voters.length;i++){\r\n                name[i]=no_of_voters[i].voter_name;\r\n                address  temp=no_of_voters[i].voter_name;\r\n                votes[i]=vot[temp].max_no_of_votes;\r\n        }\r\n        return (name,votes);\r\n    }\r\n   function setConstituency(address _Candidate_Consti,string memory p_symbol,string memory c_name,\r\n   string memory d_name,string memory s_name)public onlyElectionCommissioner{\r\n       require(validateConstituency(_Candidate_Consti ,p_symbol));\r\n       Constituenc[p_symbol]=Constituency(_Candidate_Consti,p_symbol,c_name,d_name,s_name);\r\n      no_of_Constituency.push(Constituency(_Candidate_Consti,p_symbol,c_name,d_name,s_name));\r\n   }\r\n    function CandidateLength()public view returns(uint){\r\n       return no_of_candidates.length;\r\n    }\r\n     \r\n    function vote(address voter_address,string memory vote_for,uint  passwordd)public  returns(string memory){\r\n        string memory message;\r\n        require(keccak256(abi.encodePacked((vot[voter_address].authorise))) == keccak256(abi.encodePacked((\"true\"))));\r\n    if(keccak256(abi.encodePacked((vot[voter_address].authorise))) == keccak256(abi.encodePacked((\"true\")))){\r\n        require(vot[voter_address].voter_age>=18);\r\n        if(vot[voter_address].voter_age>=18){\r\n            require(vot[voter_address].max_no_of_votes==1);\r\n        if(vot[voter_address].max_no_of_votes==1){\r\n            require(keccak256(abi.encodePacked((candy[vote_for].party_Symbol))) == keccak256(abi.encodePacked((vote_for))));\r\n            require(vot[voter_address].passwo != vot[voter_address].voterId);\r\n            require(keccak256(abi.encodePacked((vot[voter_address].passwo))) == keccak256(abi.encodePacked((passwordd))));\r\n           if (keccak256(abi.encodePacked((candy[vote_for].party_Symbol))) == keccak256(abi.encodePacked((vote_for)))){\r\n             candy[vote_for].votes_polled+=1;\r\n            \r\n             vot[voter_address].max_no_of_votes=0;\r\n             vot[voter_address].authorise=\"false\";\r\n             message=\"Your Vote has been successfully casted.Thank you for voting.Have a good day.\";\r\n           }\r\n           else{\r\n               message=\"Invalid party symbol.please re-check the symbol and cast the vote.\";\r\n           } \r\n        }\r\n        else{\r\n            message=\"You have been allotted more than one vote.Hence cannot be permitted to vote.Please reach out to concerned authorities for problem resolution.Thank you.\";\r\n        }\r\n    }\r\n    else{\r\n        message=\"Your age is below 18 years,you are not eligible to vote.Thank you\";\r\n    }\r\n      }\r\n      else{\r\n          message=\"You are not authorized to vote.please reach out to concerned authorities for resolution of problem.Thank you\";\r\n      }  \r\n      return (message);\r\n   }\r\n   function Result()public view returns(string memory party_name,string memory party_symbol,string memory represent_name,string memory constituency,\r\n   string memory district,string memory state,uint _winnervotes,string memory){\r\n       string memory message=\"Congratulations on your win!!!!\";\r\n      uint  winnervotes=0;\r\n      string memory key;\r\n       for(uint i=0;i<no_of_candidates.length;i++){\r\n           string memory nn= no_of_candidates[i].party_Symbol;\r\n               if(candy[nn].votes_polled > winnervotes){\r\n                 winnervotes = candy[nn].votes_polled;\r\n                key=nn;\r\n               }\r\n              else if(candy[nn].votes_polled == winnervotes)\r\n                   return(\"Election Tied\",\"!!!\",\"\",\"\",\"\",\"\",winnervotes,\"Election Tied\");\r\n       }\r\n       return (candy[key].party_Name,candy[key].party_Symbol,candy[key].representative_name,Constituenc[key].contituency_name,\r\n       Constituenc[key].district_name\r\n       ,Constituenc[key].state,winnervotes,message);\r\n   }\r\n   function AllCandidates()external view returns(string memory,string[] memory party_name,string[] memory party_symbol,\r\n   string[] memory candidate_name,string[] memory _Constituency_Name,uint[] memory){\r\n       string memory message=\"These are all the candidates and their party symbols.Kindly pick your party symbol and vote for it.Thank you.\";\r\n       string[] memory List =new string[](no_of_candidates.length) ;\r\n      string[] memory symbols=new string[](no_of_candidates.length);\r\n      string[] memory Clist=new string[](no_of_candidates.length);\r\n      string[] memory ConList=new string[](no_of_candidates.length);\r\n      uint[] memory votess=new uint[](no_of_candidates.length);\r\n      for(uint i=0;i<no_of_candidates.length;i++){\r\n          List[i]=no_of_candidates[i].party_Name;\r\n          symbols[i]=no_of_candidates[i].party_Symbol;\r\n          Clist[i]=no_of_candidates[i].representative_name;\r\n          string memory temp=no_of_candidates[i].party_Symbol;\r\n          ConList[i]=Constituenc[temp].contituency_name;\r\n          votess[i]=candy[temp].votes_polled;\r\n      }\r\n      return (message,List,symbols,Clist,ConList,votess);\r\n       }\r\n}\r\n\r\n",
  "sourcePath": "C:\\Users\\khage\\SDGI-Decentralized-Voting-khagesh\\DecentralizedVoting\\contracts\\Voting.sol",
  "compiler": {
    "name": "solc",
    "version": "0.8.10+commit.fc410830.Emscripten.clang"
  },
  "schemaVersion": "3.4.4",
  "updatedAt": "2022-02-22T04:54:14.037Z",
  "networkType": "ethereum",
  "devdoc": {
    "kind": "dev",
    "methods": {},
    "version": 1
  },
  "userdoc": {
    "kind": "user",
    "methods": {},
    "version": 1
  }
}